{
  "_format": "hh-sol-artifact-1",
  "contractName": "MarriageProposal",
  "sourceName": "contracts/MarriageProposal.sol",
  "abi": [
    {
      "anonymous": false,
      "inputs": [
        {
          "indexed": false,
          "internalType": "uint256",
          "name": "proposalId",
          "type": "uint256"
        },
        {
          "indexed": true,
          "internalType": "address",
          "name": "sender",
          "type": "address"
        },
        {
          "indexed": true,
          "internalType": "address",
          "name": "receiver",
          "type": "address"
        },
        {
          "indexed": false,
          "internalType": "string",
          "name": "message",
          "type": "string"
        }
      ],
      "name": "ProposalCreated",
      "type": "event"
    },
    {
      "anonymous": false,
      "inputs": [
        {
          "indexed": false,
          "internalType": "uint256",
          "name": "proposalId",
          "type": "uint256"
        },
        {
          "indexed": false,
          "internalType": "enum MarriageProposal.ProposalStatus",
          "name": "status",
          "type": "uint8"
        }
      ],
      "name": "ProposalResponded",
      "type": "event"
    },
    {
      "inputs": [
        {
          "internalType": "address",
          "name": "_receiver",
          "type": "address"
        },
        {
          "internalType": "string",
          "name": "_message",
          "type": "string"
        }
      ],
      "name": "createProposal",
      "outputs": [],
      "stateMutability": "nonpayable",
      "type": "function"
    },
    {
      "inputs": [
        {
          "internalType": "uint256",
          "name": "_proposalId",
          "type": "uint256"
        }
      ],
      "name": "getProposal",
      "outputs": [
        {
          "internalType": "address",
          "name": "sender",
          "type": "address"
        },
        {
          "internalType": "address",
          "name": "receiver",
          "type": "address"
        },
        {
          "internalType": "string",
          "name": "message",
          "type": "string"
        },
        {
          "internalType": "enum MarriageProposal.ProposalStatus",
          "name": "status",
          "type": "uint8"
        }
      ],
      "stateMutability": "view",
      "type": "function"
    },
    {
      "inputs": [],
      "name": "proposalCount",
      "outputs": [
        {
          "internalType": "uint256",
          "name": "",
          "type": "uint256"
        }
      ],
      "stateMutability": "view",
      "type": "function"
    },
    {
      "inputs": [
        {
          "internalType": "uint256",
          "name": "",
          "type": "uint256"
        }
      ],
      "name": "proposals",
      "outputs": [
        {
          "internalType": "address",
          "name": "sender",
          "type": "address"
        },
        {
          "internalType": "address",
          "name": "receiver",
          "type": "address"
        },
        {
          "internalType": "string",
          "name": "message",
          "type": "string"
        },
        {
          "internalType": "enum MarriageProposal.ProposalStatus",
          "name": "status",
          "type": "uint8"
        }
      ],
      "stateMutability": "view",
      "type": "function"
    },
    {
      "inputs": [
        {
          "internalType": "uint256",
          "name": "_proposalId",
          "type": "uint256"
        },
        {
          "internalType": "enum MarriageProposal.ProposalStatus",
          "name": "_status",
          "type": "uint8"
        }
      ],
      "name": "respondToProposal",
      "outputs": [],
      "stateMutability": "nonpayable",
      "type": "function"
    }
  ],
  "bytecode": "0x608060405234801561001057600080fd5b50610fe8806100206000396000f3fe608060405234801561001057600080fd5b50600436106100575760003560e01c8063013cf08b1461005c5780631f4f7d291461008f578063c7f758a8146100ab578063c8d89305146100de578063da35c664146100fa575b600080fd5b61007660048036038101906100719190610a62565b610118565b6040516100869493929190610c66565b60405180910390f35b6100a960048036038101906100a49190610a0a565b61021d565b005b6100c560048036038101906100c09190610a62565b610486565b6040516100d59493929190610c66565b60405180910390f35b6100f860048036038101906100f39190610a8b565b6106db565b005b6101026108d8565b60405161010f9190610d12565b60405180910390f35b60016020528060005260406000206000915090508060000160009054906101000a900473ffffffffffffffffffffffffffffffffffffffff16908060010160009054906101000a900473ffffffffffffffffffffffffffffffffffffffff169080600201805461018790610e47565b80601f01602080910402602001604051908101604052809291908181526020018280546101b390610e47565b80156102005780601f106101d557610100808354040283529160200191610200565b820191906000526020600020905b8154815290600101906020018083116101e357829003601f168201915b5050505050908060030160009054906101000a900460ff16905084565b60405180608001604052803373ffffffffffffffffffffffffffffffffffffffff1681526020018473ffffffffffffffffffffffffffffffffffffffff16815260200183838080601f016020809104026020016040519081016040528093929190818152602001838380828437600081840152601f19601f820116905080830192505050505050508152602001600060028111156102e4577f4e487b7100000000000000000000000000000000000000000000000000000000600052602160045260246000fd5b815250600160008054815260200190815260200160002060008201518160000160006101000a81548173ffffffffffffffffffffffffffffffffffffffff021916908373ffffffffffffffffffffffffffffffffffffffff16021790555060208201518160010160006101000a81548173ffffffffffffffffffffffffffffffffffffffff021916908373ffffffffffffffffffffffffffffffffffffffff16021790555060408201518160020190805190602001906103a59291906108de565b5060608201518160030160006101000a81548160ff021916908360028111156103f7577f4e487b7100000000000000000000000000000000000000000000000000000000600052602160045260246000fd5b02179055509050508273ffffffffffffffffffffffffffffffffffffffff163373ffffffffffffffffffffffffffffffffffffffff167fbf0fcd54b591a07a1943cf5eaf6fdd64e31bc7b4c469e9ba81fb00e21fd859f5600054858560405161046293929190610d56565b60405180910390a360008081548092919061047c90610e79565b9190505550505050565b60008060606000805485106104d0576040517f08c379a00000000000000000000000000000000000000000000000000000000081526004016104c790610cf2565b60405180910390fd5b6000600160008781526020019081526020016000206040518060800160405290816000820160009054906101000a900473ffffffffffffffffffffffffffffffffffffffff1673ffffffffffffffffffffffffffffffffffffffff1673ffffffffffffffffffffffffffffffffffffffff1681526020016001820160009054906101000a900473ffffffffffffffffffffffffffffffffffffffff1673ffffffffffffffffffffffffffffffffffffffff1673ffffffffffffffffffffffffffffffffffffffff1681526020016002820180546105ac90610e47565b80601f01602080910402602001604051908101604052809291908181526020018280546105d890610e47565b80156106255780601f106105fa57610100808354040283529160200191610625565b820191906000526020600020905b81548152906001019060200180831161060857829003601f168201915b505050505081526020016003820160009054906101000a900460ff166002811115610679577f4e487b7100000000000000000000000000000000000000000000000000000000600052602160045260246000fd5b60028111156106b1577f4e487b7100000000000000000000000000000000000000000000000000000000600052602160045260246000fd5b81525050905080600001518160200151826040015183606001519450945094509450509193509193565b60006001600084815260200190815260200160002090508060010160009054906101000a900473ffffffffffffffffffffffffffffffffffffffff1673ffffffffffffffffffffffffffffffffffffffff163373ffffffffffffffffffffffffffffffffffffffff1614610784576040517f08c379a000000000000000000000000000000000000000000000000000000000815260040161077b90610cd2565b60405180910390fd5b600060028111156107be577f4e487b7100000000000000000000000000000000000000000000000000000000600052602160045260246000fd5b8160030160009054906101000a900460ff166002811115610808577f4e487b7100000000000000000000000000000000000000000000000000000000600052602160045260246000fd5b14610848576040517f08c379a000000000000000000000000000000000000000000000000000000000815260040161083f90610cb2565b60405180910390fd5b818160030160006101000a81548160ff02191690836002811115610895577f4e487b7100000000000000000000000000000000000000000000000000000000600052602160045260246000fd5b02179055507ff73e6f473dce6a384cd0f96280b163cd5eac7d56a7fb014c496328eb7c1c78b183836040516108cb929190610d2d565b60405180910390a1505050565b60005481565b8280546108ea90610e47565b90600052602060002090601f01602090048101928261090c5760008555610953565b82601f1061092557805160ff1916838001178555610953565b82800160010185558215610953579182015b82811115610952578251825591602001919060010190610937565b5b5090506109609190610964565b5090565b5b8082111561097d576000816000905550600101610965565b5090565b60008135905061099081610f74565b92915050565b6000813590506109a581610f8b565b92915050565b60008083601f8401126109bd57600080fd5b8235905067ffffffffffffffff8111156109d657600080fd5b6020830191508360018202830111156109ee57600080fd5b9250929050565b600081359050610a0481610f9b565b92915050565b600080600060408486031215610a1f57600080fd5b6000610a2d86828701610981565b935050602084013567ffffffffffffffff811115610a4a57600080fd5b610a56868287016109ab565b92509250509250925092565b600060208284031215610a7457600080fd5b6000610a82848285016109f5565b91505092915050565b60008060408385031215610a9e57600080fd5b6000610aac858286016109f5565b9250506020610abd85828601610996565b9150509250929050565b610ad081610da4565b82525050565b610adf81610df3565b82525050565b6000610af18385610d93565b9350610afe838584610e05565b610b0783610f4f565b840190509392505050565b6000610b1d82610d88565b610b278185610d93565b9350610b37818560208601610e14565b610b4081610f4f565b840191505092915050565b6000610b58602783610d93565b91507f50726f706f73616c2068617320616c7265616479206265656e20726573706f6e60008301527f64656420746f2e000000000000000000000000000000000000000000000000006020830152604082019050919050565b6000610bbe602e83610d93565b91507f4f6e6c79207468652072656365697665722063616e20726573706f6e6420746f60008301527f207468652070726f706f73616c2e0000000000000000000000000000000000006020830152604082019050919050565b6000610c24601883610d93565b91507f50726f706f73616c20646f6573206e6f742065786973742e00000000000000006000830152602082019050919050565b610c6081610de9565b82525050565b6000608082019050610c7b6000830187610ac7565b610c886020830186610ac7565b8181036040830152610c9a8185610b12565b9050610ca96060830184610ad6565b95945050505050565b60006020820190508181036000830152610ccb81610b4b565b9050919050565b60006020820190508181036000830152610ceb81610bb1565b9050919050565b60006020820190508181036000830152610d0b81610c17565b9050919050565b6000602082019050610d276000830184610c57565b92915050565b6000604082019050610d426000830185610c57565b610d4f6020830184610ad6565b9392505050565b6000604082019050610d6b6000830186610c57565b8181036020830152610d7e818486610ae5565b9050949350505050565b600081519050919050565b600082825260208201905092915050565b6000610daf82610dc9565b9050919050565b6000819050610dc482610f60565b919050565b600073ffffffffffffffffffffffffffffffffffffffff82169050919050565b6000819050919050565b6000610dfe82610db6565b9050919050565b82818337600083830152505050565b60005b83811015610e32578082015181840152602081019050610e17565b83811115610e41576000848401525b50505050565b60006002820490506001821680610e5f57607f821691505b60208210811415610e7357610e72610f20565b5b50919050565b6000610e8482610de9565b91507fffffffffffffffffffffffffffffffffffffffffffffffffffffffffffffffff821415610eb757610eb6610ec2565b5b600182019050919050565b7f4e487b7100000000000000000000000000000000000000000000000000000000600052601160045260246000fd5b7f4e487b7100000000000000000000000000000000000000000000000000000000600052602160045260246000fd5b7f4e487b7100000000000000000000000000000000000000000000000000000000600052602260045260246000fd5b6000601f19601f8301169050919050565b60038110610f7157610f70610ef1565b5b50565b610f7d81610da4565b8114610f8857600080fd5b50565b60038110610f9857600080fd5b50565b610fa481610de9565b8114610faf57600080fd5b5056fea264697066735822122035b3db14fc3bcd8016e32150ae3eb23b9a33b61761b87fb24ad6fb7c03e31df064736f6c63430008000033",
  "linkReferences": {},
  "deployedLinkReferences": {}
}